S01E000044697374616E63655F4D6561737572696E675F5379732E7372656333
S11300000C942A000C9447000C9447000C9447006D
S11300100C9447000C9447000C9447000C94470040
S11300200C9447000C94D0010C9447000C944700A6
S11300300C9447000C9447000C9447000C94470020
S11300400C9447000C9447000C9447000C94470010
S11300500C94470011241FBECFE5D8E0DEBFCDBF0E
S113006010E0A0E6B0E0EEE4F6E002C005900D92E8
S1130070AA37B107D9F720E0AAE7B0E001C01D9282
S1130080AE37B207E1F70E9446020C9425030C94A4
S1130090000095B3946095BB882324F495B39068CD
S11300A095BB03C095B39F7795BB86FF04C095B3FA
S11300B0906495BB03C095B39F7B95BB85FF04C03B
S11300C095B3906295BB03C095B39F7D95BB84FFA8
S11300D004C095B3906195BB03C095B39F7E95BB57
S11300E095B3986095BBEFE9FFE03197F1F700C055
S11300F0000095B3977F95BBEFE9FFE03197F1F7E7
S113010000C0000083FF04C095B3906895BB03C092
S113011095B39F7795BB82FF04C095B3906495BB5C
S113012003C095B39F7B95BB81FF04C095B39062D8
S113013095BB03C095B39F7D95BB80FF04C085B379
S1130140806185BB03C085B38F7E85BB85B3886022
S113015085BB8FE99FE00197F1F700C0000085B3EC
S1130160877F85BBEFE9FFE03197F1F700C000001E
S11301700895CF93DF93EC0103C00E9449002196B8
S113018088818111FACFDF91CF91089595B39B7F38
S113019095BB882324F495B3906895BB03C095B3AD
S11301A09F7795BB86FF04C095B3906495BB03C04D
S11301B095B39F7B95BB85FF04C095B3906295BBB7
S11301C003C095B39F7D95BB84FF04C095B3906134
S11301D095BB03C095B39F7E95BB95B3986095BBC3
S11301E0EFE9FFE03197F1F700C0000095B3977F86
S11301F095BBEFE9FFE03197F1F700C0000083FF02
S113020004C095B3906895BB03C095B39F7795BB25
S113021082FF04C095B3906495BB03C095B39F7BE4
S113022095BB81FF04C095B3906295BB03C095B3A1
S11302309F7D95BB80FF04C085B3806185BB03C0EF
S113024085B38F7E85BB85B3886085BB8FE99FE0CE
S11302500197F1F700C0000085B3877F85BBEFE904
S1130260FFE03197F1F700C00000089584B38C6F6C
S113027084BB83E00E94C6008FE79EE30197F1F7F9
S113028000C0000083E00E94C6008FE79EE3019750
S1130290F1F700C0000083E00E94C60082E00E94E3
S11302A0C60088E20E94C60081E00E94C60086E083
S11302B00E94C6008CE00E94C6009FEF29EF80E0F8
S11302C0915020408040E1F700C000000895FF9263
S11302D00F931F93CF93DF93CDB7DEB72A970FB653
S11302E0F894DEBF0FBECDBF611571058105910580
S11302F021F480E30E94490047C0992354F4909567
S11303008095709561957F4F8F4F9F4FFF24F39495
S113031001C0F12C00E015C02AE030E040E050E0DC
S11303200E94EC02E1E0F0E0EC0FFD1FE00FF11D94
S113033007FDFA95605D6083622F732F842F952FDC
S11303400F5F611571058105910531F71FEF100FDE
S1130350FF20C1F0E1E0F0E0EC0FFD1FE00FF11D24
S113036007FDFA958DE28083102F0CC0E1E0F0E0E8
S1130370EC0FFD1FE10FF11D17FDFA9580810E941E
S113038049001150112394F72A960FB6F894DEBF52
S11303900FBECDBFDF91CF911F910F91FF900895B4
S11303A01F920F920FB60F9211248F939F93AF93C6
S11303B0BF9380917A0090917B00A0917C00B091D2
S11303C07D000196A11DB11D80937A0090937B005E
S11303D0A0937C00B0937D00BF91AF919F918F91CA
S11303E00F900FBE0F901F9018958F929F92AF920F
S11303F0BF92CF92DF92EF92FF9210927A00109206
S11304007B0010927C0010927D001FBC8EB581642D
S11304108EBD88B7806288BF08B605FEFDCF86B45E
S113042097B4A12CB12C8EB58F7B8EBD88B780621A
S113043088BF08B605FEFDCFC6B4D7B4E12CF12CB5
S11304401EBC88B7806288BF17BC16BC1DBC1CBC10
S113045020917A0030917B0040917C0050917D0086
S113046061E070E0CB010E94BA02C818D908EA081A
S1130470FB086C0D7D1D8E1D9F1DFF90EF90DF907E
S1130480CF90BF90AF909F908F9008950E943601B7
S113049089B7846089BF8FB780688FBF81B3806854
S11304A081BB81B3816081BB81B3826081BB87B32F
S11304B0816087BB88B3816088BB82B3806882BB5C
S11304C02FEF80E792E0215080409040E1F700C098
S11304D0000082B38F7782BB0E94F5019B01AC01BF
S11304E0A8E2B7E80E940B0320E038E448EE51E0AC
S11304F00E94CA02022F132FD42FC52FC22ED32E2F
S1130500E42EF52E81E00E94C60021E5C216D10436
S1130510E104F10470F082B38E7F82BB82B3826007
S113052082BB80E690E00E94B90088B38E7F88BBCE
S113053017C088B3816088BB82B38D7F82BB82B3CE
S1130540816082BB8AE690E00E94B900602F712F1F
S11305508D2F9C2F0E94670186E790E00E94B900CE
S11305608FEF99E628E1815090402040E1F700C0E8
S11305700000A3CFDB018F939F930E940B03BF91D5
S1130580AF91A29F800D911DA39F900DB29F900DDE
S113059011240895A1E21A2EAA1BBB1BFD010DC054
S11305A0AA1FBB1FEE1FFF1FA217B307E407F5071F
S11305B020F0A21BB30BE40BF50B661F771F881FFB
S11305C0991F1A9469F760957095809590959B0191
S11305D0AC01BD01CF010895052E97FB1EF40094D4
S11305E00E94030357FD07D00E94CA0207FC03D0F0
S11305F04EF40C94030350954095309521953F4F4C
S11306004F4F5F4F089590958095709561957F4FFA
S11306108F4F9F4F08950E941603A59F900DB49F7E
S1130620900DA49F800D911D11240895A29FB001E7
S1130630B39FC001A39F700D811D1124911DB29F12
S1110640700D811D1124911D0895F894FFCFB3
S113064E4E6F204F626A6563740044697374616E01
S10D065E6365203D200020636D0059
S9030000FC
